:020000040000fa
:080000000002040000000000f2
:020000040000fa
:100008009a0200009a0200009a0200009a02000078
:100018009a0200009a0200009a0200009a02000068
:100028009a0200009a0200009a0200009a02000058
:100038009a0200009a0200009a0200009a02000048
:100048009a0200009a0200009a0200009a02000038
:100058009a0200009a0200009a0200009a02000028
:100068009a0200009a0200009a020000ea020000c8
:100078009a0200009a0200009a0200009a02000008
:100088009a0200009a0200009a0200009a020000f8
:100098009a0200009a0200009a0200009a020000e8
:1000a8009a0200009a0200009a0200009a020000d8
:1000b8009a0200009a0200009a0200009a020000c8
:1000c8009a0200009a0200009a0200009a020000b8
:1000d8009a0200009a0200009a0200009a020000a8
:1000e8009a0200009a0200009a0200009a02000098
:1000f8009a0200009a0200009a0200009a02000088
:100108009a0200009a0200009a0200009a02000077
:100118009a0200009a0200009a0200009a02000067
:100128009a0200009a0200009a0200009a02000057
:100138009a0200009a0200009a0200009a02000047
:100148009a0200009a0200009a0200009a02000037
:100158009a0200009a0200009a0200009a02000027
:100168009a0200009a0200009a0200009a02000017
:100178009a0200009a0200009a0200009a02000007
:100188009a0200009a0200009a0200009a020000f7
:100198009a0200009a0200009a0200009a020000e7
:1001a8009a0200009a0200009a0200009a020000d7
:1001b8009a0200009a0200009a0200009a020000c7
:1001c8009a0200009a0200009a0200009a020000b7
:1001d8009a0200009a0200009a0200009a020000a7
:1001e8009a0200009a0200009a0200009a02000097
:0801f8009a0200009a020000c7
:020000040000fa
:100208009a0200009a0200009a0200009a02000076
:100218009a0200009a0200009a0200009a02000066
:100228009a0200009a0200009a0200009a02000056
:100238009a0200009a0200009a0200009a02000046
:100248009a0200009a0200009a0200009a02000036
:100258009a0200009a0200009a0200009a02000026
:100268009a0200009a0200009a020000ea020000c6
:100278009a0200009a0200009a0200009a02000006
:100288009a0200009a0200009a0200009a020000f6
:100298009a0200009a0200009a0200009a020000e6
:1002a8009a0200009a0200009a0200009a020000d6
:1002b8009a0200009a0200009a0200009a020000c6
:1002c8009a0200009a0200009a0200009a020000b6
:1002d8009a0200009a0200009a0200009a020000a6
:1002e8009a0200009a0200009a0200009a02000096
:1002f8009a0200009a0200009a0200009a02000086
:100308009a0200009a0200009a0200009a02000075
:100318009a0200009a0200009a0200009a02000065
:100328009a0200009a0200009a0200009a02000055
:100338009a0200009a0200009a0200009a02000045
:100348009a0200009a0200009a0200009a02000035
:100358009a0200009a0200009a0200009a02000025
:100368009a0200009a0200009a0200009a02000015
:100378009a0200009a0200009a0200009a02000005
:100388009a0200009a0200009a0200009a020000f5
:100398009a0200009a0200009a0200009a020000e5
:1003a8009a0200009a0200009a0200009a020000d5
:1003b8009a0200009a0200009a0200009a020000c5
:1003c8009a0200009a0200009a0200009a020000b5
:1003d8009a0200009a0200009a0200009a020000a5
:1003e8009a0200009a0200009a0200009a02000095
:0803f8009a0200009a020000c5
:020000040000fa
:100400006f8020000e7f22000e0188000000000097
:10041000000020000000e000020032000001200087
:10042000200288000c000700e038200001002000b6
:1004300011000700000020000000e0000200320070
:1004400000000200000000009e0202000000000008
:100450000040da000000fe004440a9000000200037
:100460000000e0000300320000002000a00188002e
:100470004440a80000000600910188008000780038
:100480000000eb0015003700e280400032a0b4000d
:100490009101ba00e280400032a0b4009102ba009b
:1004a000e280400032a0b4000002eb00472bde00e7
:1004b000f507b200602ce10004003a000059eb009f
:1004c0008301e900fdff3e00040037006128e100e0
:1004d000010032000082eb00040007001101ba00a5
:1004e0000200e000e8ff3a00000006003159ba00bf
:1004f0008301e9000c0032002159ba008301e900b0
:10050000080032000400e00003003a00e2804000ee
:1005100032a0b400f5ff370011d9ba008301e90019
:10052000faff3a008100e800e180400032a0b40008
:0c053000000006000040da000000fe00a1
:020000040000fa
:10053c000000fa00640007006c0007000002eb00ea
:10054c0004408800010037000000000004408000d7
:10055c00050020003600200007002000860f520006
:10056c00878f5a00f8ff3e0004600100030037003b
:10057c0005003700070037000c003700c402a80044
:10058c00c422a9000f003700c422a800c402a9008d
:10059c000c00370024408000040078003200070073
:1005ac00144080000440880006003700244080007e
:1005bc00040078002c0007001440800004408800e0
:1005cc0000000000e1ff3700801f7800841f7800d6
:1005dc003400f80000002000a00188000000fa00a0
:1005ec008660a9005416800064026200e00f52007d
:1005fc000b003a0004408000e20f5200050032006c
:10060c0004408000e30f52000200320004408000de
:10061c001440880024002000044088000d0037009e
:10062c0004408000e00f520003003a001400200048
:10063c00144088000500370004408000e10f520090
:10064c0002003a000002eb00144088003400200045
:10065c00044088000080fa003400f9004f02780052
:10066c004f007800004006000200fa00000f7800ee
:10067c000002eb00340888001e0278006522b900e5
:10068c000402780064088800840880000440a000fc
:10069c000450a1008408880084e0a90011e1a8009e
:1006ac000000000025048000040820000482620081
:1006bc00e00f5200fbff320084e0a90013e1a90017
:1006cc000080fa00000006000000fa00c602a80034
:1006dc00c622a800c002a900c022a900c402a8001a
:1006ec00c422a8000080fa00000006000000fa00f6
:1006fc002c83a80068c0a800c842a8008660a90086
:10070c009660a80060c0a8000080fa0000000600f7
:020000040000fa
:10071c0000080000040000000000000004080000b5
:10072c00020000000200000088130000000000001e
:020000040000fa
:020000040001f9
:0457f800ad7b000085
:020000040000fa
:020000040001f9
:0457fc003f3f00002b
:00000001FF
