:020000040000fa
:080000000002040000000000f2
:020000040000fa
:100008009a0200009a0200009a0200009a02000078
:100018009a0200009a0200009a0200009a02000068
:100028009a0200009a0200009a0200009a02000058
:100038009a0200009a0200009a02000024110000af
:100048009a0200009a0200009a0200009a02000038
:100058009a0200009a0200009a0200009a02000028
:100068009a0200009a0200009a0200006c11000037
:100078009a0200009a0200009a0200009a02000008
:100088009a0200009a0200009a0200009a020000f8
:100098009a0200009a0200009a0200009a020000e8
:1000a8009a0200009a0200009a0200009a020000d8
:1000b8009a0200009a0200009a0200009a020000c8
:1000c8009a0200009a0200009a0200009a020000b8
:1000d8009a0200009a0200009a0200009a020000a8
:1000e8009a0200009a0200009a0200009a02000098
:1000f8009a0200009a0200009a0200009a02000088
:100108009a0200009a0200009a0200009a02000077
:100118009a0200009a0200009a0200009a02000067
:100128009a0200009a0200009a0200009a02000057
:100138009a0200009a0200009a0200009a02000047
:100148009a0200009a0200009a0200009a02000037
:100158009a0200009a0200009a0200009a02000027
:100168009a0200009a0200009a0200009a02000017
:100178009a0200009a0200009a0200009a02000007
:100188009a0200009a0200009a0200009a020000f7
:100198009a0200009a0200009a0200009a020000e7
:1001a8009a0200009a0200009a0200009a020000d7
:1001b8009a0200009a0200009a0200009a020000c7
:1001c8009a0200009a0200009a0200009a020000b7
:1001d8009a0200009a0200009a0200009a020000a7
:1001e8009a0200009a0200009a0200009a02000097
:0801f8009a0200009a020000c7
:020000040000fa
:100208009a0200009a0200009a0200009a02000076
:100218009a0200009a0200009a0200009a02000066
:100228009a0200009a0200009a0200009a02000056
:100238009a0200009a0200009a02000024110000ad
:100248009a0200009a0200009a0200009a02000036
:100258009a0200009a0200009a0200009a02000026
:100268009a0200009a0200009a0200006c11000035
:100278009a0200009a0200009a0200009a02000006
:100288009a0200009a0200009a0200009a020000f6
:100298009a0200009a0200009a0200009a020000e6
:1002a8009a0200009a0200009a0200009a020000d6
:1002b8009a0200009a0200009a0200009a020000c6
:1002c8009a0200009a0200009a0200009a020000b6
:1002d8009a0200009a0200009a0200009a020000a6
:1002e8009a0200009a0200009a0200009a02000096
:1002f8009a0200009a0200009a0200009a02000086
:100308009a0200009a0200009a0200009a02000075
:100318009a0200009a0200009a0200009a02000065
:100328009a0200009a0200009a0200009a02000055
:100338009a0200009a0200009a0200009a02000045
:100348009a0200009a0200009a0200009a02000035
:100358009a0200009a0200009a0200009a02000025
:100368009a0200009a0200009a0200009a02000015
:100378009a0200009a0200009a0200009a02000005
:100388009a0200009a0200009a0200009a020000f5
:100398009a0200009a0200009a0200009a020000e5
:1003a8009a0200009a0200009a0200009a020000d5
:1003b8009a0200009a0200009a0200009a020000c5
:1003c8009a0200009a0200009a0200009a020000b5
:1003d8009a0200009a0200009a0200009a020000a5
:1003e8009a0200009a0200009a0200009a02000095
:0803f8009a0200009a020000c5
:020000040000fa
:100400006f9120000e7f22000e0188000000000086
:10041000000020000000e000020032000001200087
:10042000200288000c000700a0212100010020000c
:1004300011000700000020000000e0000200320070
:100440000000020000000000a610020000000000f2
:100450000040da000000fe004440a90080022000b5
:100460000000e0000300320000002000a00188002e
:100470004440a80000000600910188008000780038
:100480000000eb0015003700e280400032a0b4000d
:100490009101ba00e280400032a0b4009102ba009b
:1004a000e280400032a0b4000002eb00472bde00e7
:1004b000f507b200602ce10004003a000059eb009f
:1004c0008301e900fdff3e00040037006128e100e0
:1004d000010032000082eb00040007001101ba00a5
:1004e0000200e000e8ff3a00000006003159ba00bf
:1004f0008301e9000c0032002159ba008301e900b0
:10050000080032000400e00003003a00e2804000ee
:1005100032a0b400f5ff370011d9ba008301e90019
:10052000faff3a008100e800e180400032a0b40008
:10053000000006000040da000000fe000a00fa0099
:10054000e20f500022003e00a4488000e10f52005c
:1005500006003200872320004623200024232000a9
:1005600005232000e08f530004003a00872220007a
:10057000462220002422200005222000000028001e
:100580001500600003003a00800b78000700280087
:10059000958a7300054020009482620001003a00b1
:1005a00014a0a000820278000600370094037800af
:1005b0000710b200fdff3200b103fb00070b78000b
:1005c0008502e900e08f5200f8ff3a00080037008a
:1005d00034002000c0bf9f00e2bf9f00b4bf9f0057
:1005e000d1bf9f006a8057001b0407006fb99700b6
:1005f000020078000080fa00000006000c00fa00fb
:10060000889fbe00f4ff270000047800d4bf9f003d
:100610008004eb0088bf9f0099bf9f00a8bf9f0088
:10062000240c200078815700b4bf9f00cfb0970002
:1006300070805700070007000fba9700094a78003a
:100640000fba9700080052004f04be000080fa0065
:1006500000000600ef03b000889fbe008a9fbe0026
:100660008c9fbe00800678008e1f78000007eb008c
:10067000d1af9f00a2b79f0065033700dfa89700a6
:1006800054c2b3008100e800d1af9f00844f5000f6
:1006900006003a00010278000006eb0001c3b30037
:1006a00000c2b300b7c2b3000e0037003d02900095
:1006b0000404b200040032001d027800004a7800f1
:1006c000840ee800050037000000fb008d00780074
:1006d0005b030700e10f40004d0332000e07e80006
:1006e0004b03370084027800d2c2b3003443780051
:1006f000824f53000900320005003c00804f530038
:1007000008003200874f53000c003a000700370002
:10071000814f530009003a00060037000c30a0005a
:10072000f0ff37000c00a000eeff37000c10a00017
:10073000ecff37000c20a000eaff370062026600e1
:10074000010032000c00a1006802660001003200c6
:100750000c20a1000602fb000403b100e90f5200c7
:100760000c003e00050378000002eb00b603fb001e
:100770006a22b9000703b1008602780004824300b0
:100780009603fb000703b100e98f5300f7ff360023
:10079000080037000002eb00a7c2b300874f5300e8
:1007a00004003a00afb197008502e80043027800e8
:1007b000a3b79f000003eb0096b79f00e6c2b3000b
:1007c000954f13000c003a000ce0a0006443530066
:1007d000d54f130003003200050378000000eb0042
:1007e00009003700afb397008502e800470478009e
:1007f000a7b79f0098b79f0005037800090037004e
:100800006a00b9000080430086027800b603fb004e
:100810000703b100e98f5300f9ff360090b79f003e
:10082000f5ff3700b6427800cac6b300d6af9f00c6
:100830008acf5200250032000f003c0036c6b300bc
:1008400086cf52009d00320004003c00e0cf5200f1
:10085000f40232006b4353000f00370046c6b3006a
:1008600086cf5200170032006543430086cf520006
:10087000b1003a001300370036c7b30086cf5200ec
:100880002000320007003c006443530086cf520032
:10089000150032000643e80086cf5200a6003a0059
:1008a0001400370056c7b30086cf5200a9003200ab
:1008b0006343430086cf52009f003a00e5779f00d4
:1008c0000e003700e5779f00a4003700f0036600b4
:1008d0000501200001003200050028008c82720012
:1008e00005067800cfff3700e5779f000c60a00079
:1008f0009a003700e5779f000c50a0000c70a00014
:1009000096003700afb59700e5779f00cb027800df
:10091000abb79f00b5b79f00e08f520002003a00ce
:1009200001842000b1b79f003fb397008002eb0025
:10093000010037008502e800e6c37a00e0cf5300eb
:10094000fcff3a00c5b79f001fb19700e00f5100b0
:1009500005003200cfb19700830f51000200310033
:1009600082027800c5b79f00cfb297000004eb0069
:10097000850f52000100360005045200680666002b
:1009800009c2b3000f003200290037003d02900079
:100990000404b200040032001d027800094a780005
:1009a000840ee800050037008d007800000220006a
:1009b000a3020700e10f4000010032000e07e8002b
:1009c0000804e900e00f5400f0ff3a000084eb0057
:1009d00017003700bd0290000504b2000900320084
:1009e000880278009d03780035437800864b7800b4
:1009f00005047800870ee800e04f53000a003a0033
:100a000010003700880278008d0078003500fb0068
:100a100084bf9f0005047800890207000fba970081
:100a2000e10f4000070032000e07e8000500370024
:100a3000080278003fb49700cfb497005fb59700e5
:100a4000efb59700890278008504e900e08f520035
:100a5000e0ff3a00b8b79f00c9b79f00dab79f0020
:100a6000ebb79f000404780009c2b300e00f560002
:100a70000f003a00660237003d0290000404b20005
:100a8000040032001d027800094a7800840ee80054
:100a9000050037008d007800000220006802070082
:100aa000e10f4000010032000e07e8000804e900f1
:100ab000e00f5400f0ff3a0055023700afb0970046
:100ac0007003660041047800a1b79f00cfc4de0028
:100ad000090578008a0578000800be000a01be00fa
:100ae0004800de00c80add0000807200e0779f0049
:100af000e00f530009003200e04f500007003200c1
:100b0000e14f40000500320026002000f0779f00f2
:100b1000887f9f00c6b79f000300370017002000a2
:100b2000c7b79f00f8779f0078fb2f000884470025
:100b3000b8b79f0084ff370069fb2f001a00200020
:100b400089844700e5779f00b9b79f00cab79f0027
:100b50007dff3700e5779f000c0cb3008c02780016
:100b6000050cb2003b003a00e00f560005003d00c6
:100b7000afb297004501be004500be00a5b79f007b
:100b80000f003700f0026600120032002fb4970009
:100b90004803be00f69f9f0087a79f00a8b79f004d
:100ba00098029000cfaade0095a79f00a5a79f00fe
:100bb0007f9897008fa097001fa19700afa1970083
:100bc000b0b79f00c1b79f00d2b79f00e3b79f00a7
:100bd0000b003700afb09700c10278000504780021
:100be000cfc4de00090578008a057800a1b79f0010
:100bf000b8b79f00c9b79f00dab79f00ebb79f0057
:100c00003fb09700cfb097005fb19700efb197006a
:100c1000e00f5000e08f5800e00f5900e08f5900be
:100c200032003d006000b8006011b8003fb497008a
:100c3000cfb497005fb59700efb597003c00b300c5
:100c400008045000898458000a0559008b85590012
:100c500022003700e00f560005003d00afb29700bc
:100c60004501be004500be00a5b79f000f0037003c
:100c7000f0026600120032002fb497008004eb00ef
:100c80004803be000005eb0096af9f00a7af9f0092
:100c9000b9af9f00caaf9f001fa89700afa89700e9
:100ca0003fa99700cfa99700a8b79f00b0b79f00b2
:100cb000c1b79f00d2b79f00e3b79f000b0037007a
:100cc000afb09700c1027800a1b79f00050478007b
:100cd000090020000a0020000b002000b8b79f0088
:100ce000c9b79f00dab79f00ebb79f009fb497008a
:100cf000e08f54000d003a001a0020003fb097002a
:100d0000cfb097005fb19700efb197009ab79f00ff
:100d1000e00f5000e08f5800e00f5900e08f5900bd
:100d2000020032008000eb0091b79f000c017800b8
:100d300005042000020cb20082b79f00850f51000d
:100d40003400320003003c00e00f51000800320084
:100d500048003700050820008fb19700858f5100ab
:100d600014003200050c2000858f510041003a002c
:100d70000685200015c0b3003600be003601be0057
:100d80003fb49700cfb497005fb59700efb59700d9
:100d90000040e10001c8e10002d0e10003d8e10019
:100da000330039008542e800f4cf5200f2ff3a00e8
:100db0002f00370015c0b300000120000100200003
:100dc0006011b8003fb49700cfb497005fb59700ab
:100dd000efb597000040e10001c8e10002d0e1005a
:100de00003d8e10022003900490020000000d000b3
:100df0008180d2000281d2008381d2008904e9007f
:100e0000faff3a008542e800f0cf5200edff3a00c9
:100e10001700370015c0b30080002000010020003b
:100e20006011b8003fb49700cfb497005fb597004a
:100e3000efb597000040e10001c8e10002d0e100f9
:100e400003d8e1000a003900390020000000d0007a
:100e50008180d2000281d2008381d2008904e9001e
:100e6000faff3a008542e800f5cf5200edff3a0064
:100e7000e5779f006f7597009fb597008a02fb008a
:100e80008b8f520002003d00eb779f00040037007b
:100e90001fb09700850f500001003d0095b79f00df
:100ea000e00f520003003200e3026600010032004e
:100eb0000402e900050024008502660006003200f5
:100ec0009fb09700810f52000200340001025200cf
:100ed000010037000002eb006f7197008001eb000a
:100ee0008202fb00f3af9f00850f52000200340026
:100ef00085025200f5af9f00640266003b0032009d
:100f0000e202660061026600e08f520011003200ca
:100f1000bd0290000504b200080032009d02780076
:100f2000b6c2b300e00f52000100320006c3e80071
:100f3000864a7800850ee80015003700b0022000d0
:100f4000e00f5200010032000080e8008d007800c0
:100f50000c003700e00f52000e0032003d029000fe
:100f60000404b200050032001d02780005c2b3007f
:100f7000054a7800840ee800050037008d007800ef
:100f8000000220002e010700e10f400001003200a6
:100f90000e07e8007faa9700e00f52004f003200d2
:100fa00008c3b300840478003d0290000404b2003a
:100fb000040032001d027800084a7800840ee80020
:100fc000050037008d007800000320001c01070099
:100fd000e10f4000010032000e07e8008904e9003b
:100fe000f1ff3a00f9af9f003c003700ffaa9700dd
:100ff000e08f5200140032006802660012003a00ce
:1010000008c2b300850478003d0290000404b200d9
:10101000040032001d027800084a7800840ee800bf
:10102000050037008d007800000220000401070051
:10103000e10f4000010032000e07e8008904e900da
:10104000f1ff3a00f9af9f00e2026600610266001c
:10105000e08f520011003200bd0290000504b20082
:10106000080032009d027800b6c2b300e00f5200c3
:101070000100320006c3e800864a7800850ee800c9
:1010800015003700b0022000e00f520001003200ce
:101090000080e8008d0078000c003700e00f52005f
:1010a0000e0032003d0290000404b2000500320040
:1010b0001d02780005c2b300054a7800840ee800de
:1010c000050037008d00780000022000dc000700da
:1010d000e10f4000010032000e07e8001fb3970047
:1010e000858420000602e900f0046600c223dd00ca
:1010f0000c057800c7a79f000a02b2006323b9005d
:10110000e99f9f00060478004322dd00b8a79f00f6
:1011100085024200da9f9f00e5af9f00a3003700e1
:101120009fb597000fb097008b05e90001042000e0
:101130009bb79f00810f50007300320003003c00fa
:10114000e00f5000080032007e0037000408200045
:101150000fb19700840f510056003200040c20009c
:10116000840f510077003a00e00f56001f003d0049
:10117000efa997003304be002305be003fb09700df
:10118000cfb097005fb19700efb197000802be00a3
:101190000a03be00f30107000802be000a03be00f6
:1011a000e0779f000000fb00cf80de0001017800a7
:1011b00082017800540207003fb29700cfb2970037
:1011c0005fb39700efb397000002520081825a008c
:1011d00002035b0083835b00b4b79f00c5b79f0029
:1011e000d6b79f00e7b79f002e003700ef9a970011
:1011f000e08f5200220032006fab97003fb29700a1
:10120000cfb297003604be002605be000400be0023
:101210000801be0084bf9f00f5b79f000005eb00ea
:101220000f0107000801be00e0779f000000fb00ef
:10123000cf80de001a0107000fba9700ffb29700b7
:101240008aaf9f000004520081845a00d8a79f00f3
:10125000e9a79f008004eb00f9a79f005fa097001b
:10126000efa097007fa197008fa99700b0b79f00cc
:10127000c1b79f00d2b79f00e3b79f0009003700b6
:10128000efa897003fb19700110278001100090004
:101290000481d800a4002000110009000480d800b7
:1012a000e1779f00ef7197000343b000e3779f0061
:1012b00024003700f4822000df9a9700e08f52006c
:1012c00001003200e48120003fb09700cfb09700ca
:1012d0005fb19700efb197004fa397000603e900b5
:1012e000050033008301d1000281d3008180d30047
:1012f0000080d300f9ff37006f0060006440780081
:10130000e0779f000f0037003fb29700cfb2970001
:101310005fb39700efb397003fa497000804e9007c
:10132000050033008703d1000683d3008582d300f4
:101330000482d300f9ff3700674262000443b00023
:10134000e4779f003d0290000404b20007003200e1
:101350009d0278006f729700844a7800850ee8003d
:10136000e04f520007003a0007003700ef74970083
:101370008d0078000900fb0031000700e10f4000fc
:10138000010032000e07e8004fa59700bfa59700a7
:101390006fa8970064055500e3855500680050006c
:1013a000caa79f00bba79f00e0af9f009fb0970018
:1013b000e08f50005aff3a006806660014003200c1
:1013c0007fa99700e00f51001100340008c2b3005c
:1013d000820478003d0290000404b2000400320050
:1013e0001d027800084a7800840ee80005003700e6
:1013f0008d0078000002200011000700e10f40007e
:10140000010032000e07e8008904e900f1ff3a000c
:10141000dfa9970013407800e0779f00e04f50006d
:1014200096fc3a000e0078004f0778004f06be0089
:101430004f05be004f04be00ef03b10000000600e0
:10144000889fbe00010478008084eb003802900081
:10145000e20262003b003200040378009802900030
:101460000620b20002003a00e08f520035003a0038
:101470000490a0008004780034049800f90fb200b2
:10148000e08f520002003a00a8029000050c78009c
:10149000ea8f540005003a000408b20003003a0045
:1014a00088007800d0002000e5ff070018029000b7
:1014b000d8029000850f52000b0032000402e800b1
:1014c00015c0b3001404980018027800094a780087
:1014d000040ce800e4902000054a7800ea8f5400ec
:1014e00018003a00050037000940780088007800ad
:1014f00017000700800478001200370038029000bf
:101500000410b2000f00320018019000a8009000f3
:101510004800900009fc070018029000840f50005a
:1015200004003200380290000403b3003404980031
:101530008084eb000002eb00140498002802900065
:10154000040c7800090078004f04be00000006007b
:101550000200fa00889fbe0001047800a0ff9f00ef
:1015600038029000840278000504b20002003200c4
:101570000000fb0035003700e202620005003a007f
:101580000403b30015049800340498000080eb00b5
:101590002e003700d8049000e08f540006003a0077
:1015a00012002000e680570048009000e3fb07008f
:1015b0001904980023003700a8029000e08f520021
:1015c00008003a00159120000430a000250498007e
:1015d000050c78003404980025002000550498007c
:1015e0001504980018019000a80090004800900091
:1015f000d2fb0700280290008082eb0015049800bf
:10160000affa9700054a7800040ce8002ffa97001b
:10161000ea4f52000b003a00380290000410b2006a
:101620000800320018019000a800900048009000c7
:10163000c2fb07000002eb00a8029000140498000f
:10164000050c78002ffa97000400fb004f04be0041
:101650000080fa000000060000c0da00000006006a
:101660006022b800060220000000d0008180d20075
:101670000482d2008582d2000000a0000202520043
:1016800083825a00030031000202420083824a0032
:101690000000a1000603e900f3ff3a000000060085
:1016a000020ab900001bb9000200b8008100420024
:1016b0008100430000000600889fbe008a9fbe0094
:1016c0003004be002005be000404440085844c00a4
:1016d00006054d0087854d000898be000a90be00a3
:1016e0000440e10005c8e10006d0e10007d8e100b0
:1016f00002003100680040001008e8004f05be00fd
:101700004f04be00000006001000fa00889fbe00d3
:101710008a9fbe00110020000605be000404be0022
:101720003002be002003be00c4b79f00d5b79f00a3
:10173000e6b79f00f7b79f000802520089825a005f
:101740000a035b008b835b0084bf9f0095bf9f00f3
:10175000a6bf9f00b7bf9f000498be000698be00ba
:101760004fb29700dfb297006fb39700ffb39700b7
:101770000820e10009a8e1000ab0e1000bb8e1008f
:10178000010039008000eb004f05be0010881000fa
:101790004f04be000080fa00000006001400fa00aa
:1017a000889fbe008a9fbe008c9fbe000006eb0093
:1017b0003e000700ccb79f00bcb79f00acb79f00ae
:1017c0009cb79f008cb79f000605be000404be00b6
:1017d0000d0420004fb39700bfb29700860343006b
:1017e0002fb29700e00f530004003d003d000700ba
:1017f0000f004000b0ff070003003700390007006a
:101800000f004000c0ff0700cfb2970095bf9f00b8
:10181000e08f5200090035002b0007001400200063
:10182000050020006033b800000072008180720063
:1018300002017300838173001c0007000c06e8009e
:101840008d0f5600e3ff3a001fba9700e00f5200d9
:1018500005003d000802be000a03be0000fe2f0086
:101860000f00400094ff07004faa9700e00f5200be
:1018700008003a000fb497009fb497002fb5970067
:10188000bfb59700d8b79f00e9b79f00fab79f0090
:101890008bbf9f000c0007004f06be004f05be0027
:1018a0004f04be000080fa0000000600010007009f
:1018b0000000060090b79f00a1b79f00b2b79f003d
:1018c000c3b79f00000006000100070000000600eb
:1018d0001fb09700afb097003fb19700cfb197000e
:1018e000000006004f2bde00f9ff0700868373001f
:1018f000858242004f23de00a7b79f0086827200d8
:101900000402420095b79f00ffaa97004f2bde000c
:10191000858242000602720084b79f006faa97007a
:101920004f23de000402420086827200f5af9f0062
:101930004f18de0000027200e5ff0700e4af9f00d1
:101940000000400081804800020149008381490075
:101950000802be000a03be00d6ff070000fe2f00eb
:1019600000000600881f780018002000881f7800fb
:101970008aff07008f87e9004f0478000000060007
:10198000801feb0085ff07008f87e900000006003d
:10199000889fbe008a9fbe00e00f5000e08f580075
:1019a000e00f5900e08f59000c003d006044b80082
:1019b0006055b8000000540081805c0002015d00a9
:1019c00083815d00180020001500070008003d001d
:1019d000180007000004eb00050037000004eb00ce
:1019e0000f00070002003d00120007001800200051
:1019f000dcff0700e00f5400060032006022b80050
:101a00006033b8000000520081805a0002015b0080
:101a100083815b004f05be004f04be00000006003e
:101a2000e00f5200e08f5a00e00f5b00e08f5b0098
:101a3000000006006044b8006055b800040254007d
:101a400085825c0006035d0087835d000000060060
:101a5000889fbe008a9fbe008c1f7800e00f500058
:101a6000e08f5800e00f5900e08f59000d003d0055
:101a70006044b8006055b8001c002000000054000d
:101a800081805c0002015d0083815d000820e1002f
:101a900009a8e1000ab0e1000bb8e1000d003d002b
:101aa000080037000006eb00e00f5200e08f5a00fc
:101ab000e00f5b00e08f5b0006003d006044b80073
:101ac0006055b8000402540085825c0006035d0086
:101ad00087835d00aaff0700e00f56000600320072
:101ae0006022b8006033b8000000520081805a00c4
:101af00002015b0083815b004f0678004f05be004a
:101b00004f04be0000000600889fbe008a9fbe00f2
:101b10008c1f78000006eb00e00f5000e08f5800ab
:101b2000e00f5900e08f590007003d006044b80005
:101b30006055b8001c0020000000540081805c004b
:101b400002015d0083815d00e00f5200e08f5a00ca
:101b5000e00f5b00e08f5b0007003d006044b800d1
:101b60006055b8000c00a2000402540085825c009d
:101b700006035d0087835d000c000700e00f560040
:101b8000060032006022b8006033b8000000520046
:101b900081805a0002015b0083815b004f06780060
:101ba0004f05be004f04be0000000600889fbe0027
:101bb0008a9fbe008c9fbe000404b8000506b800d2
:101bc0008904460060854e000606b8000a054600f6
:101bd000e0854e000706b8008b054600040eb800ed
:101be000890446000a854e00e0854d00050eb800c8
:101bf0000a0546008b854e00060eb8008b05460090
:101c00000416b8000a0546008b854e000516b8007c
:101c10008b054600041eb8008b0546000800be0078
:101c20000a01be004f06be004f05be004f04be00b5
:041c300000000600aa
:020000040000fa
:101c3400486500006c6c00006f2100000052000039
:101c4400554e00004e4900004e470000005300006e
:101c5400544f0000505000004544000000000000b4
:101c640025300000326400003a25000030320000c4
:101c7400643a0000253000003264000000000000d7
:020000040000fa
:101c84000800fa00004f7800110798002207980016
:101c9400330798003e029000e00f52000900320022
:101ca40065168000f4ff2000848262001e437800e1
:101cb4000682fb004c22dd000502720064168800d7
:101cc4000a00370065168000f4ff20008482620059
:101cd4001e4278000483fb00040f2000040263000a
:101ce4004822dd0005027200641688001e0290007e
:101cf40004427800614262000482fb0061026200d7
:101d04004722dd0066168000f5f72f008502630088
:101d140005027200641688001000200039020700d2
:101d2400ccc2a8001000200036020700ccc2a900d3
:101d34002e009000330207000080fa000000060025
:101d44000600fa00004f7800110798002207980057
:101d54008001eb002e0190009e0090001e40780050
:101d6400c7ff0700130020002e0190009e00900082
:101d74001e407800c2ff07000080fa000000060041
:101d84000200fa00004f78001e427800e2022000b0
:101d94001100200004407800e9ff07000080fa00e9
:101da400000006000000fa00c9e2a900c9c2a900a7
:101db400c9a2a900c982a900c8e2a900c8c2a90091
:101dc40080a923000f020700130020004200210015
:101dd4008000eb0030c0b300a9ff0700130020000f
:101de400420620008000eb0030c0b300a4ff0700cf
:101df40013002000820220008000eb0030c0b300fa
:101e04009fff070013002000820220008000eb00e7
:101e140020c0b3009aff07001300200082022000b4
:101e24008000eb0020c0b30095ff070013002000e2
:101e3400820220008000eb0080c0b30090ff070006
:101e440013002000820220008000eb000040eb0021
:101e54008bff070013002000820220008000eb00ab
:101e640080c0b30086ff0700130020008202200018
:101e74008000eb000040eb0081ff0700130020000e
:101e8400826620008000eb0010c0b3007cff0700d6
:101e940013002000820220008000eb000040eb00d1
:101ea40077ff070013002000820220008000eb006f
:101eb40060c0b30072ff07008001eb0082022000c3
:101ec4008000eb0010c0b3006dff0700130020007a
:101ed400826620008000eb0010c0b30068ff07009a
:101ee4008001eb00820220008000eb00c0c0b30040
:101ef40063ff070013002000820220008000eb0033
:101f0400c0c0b3005eff07000080fa0000000600b6
:101f14000400fa00100798000002eb00040f780098
:101f24000002eb00040f7800070037001e0278005f
:101f34009e0290000482420014427800044078001b
:101f44008fff07001e0fe8001e0278009e0290001b
:101f54000482420014427800e04f5200f3ff3a003a
:101f64000080fa00000006000000fa008001eb0087
:101f7400820220008000eb0010c0b30040ff070085
:101f840013002000826620008000eb0010c0b30024
:101f94003bff07000080fa00000006000000fa0082
:101fa4008001eb00820220008000eb00e0c0b3005f
:101fb40033ff070013002000820220008000eb00a2
:101fc400e0c0b3002eff07000080fa000000060006
:101fd4000200fa00004f7800114798001e42780072
:101fe400e04f520008003a009e42900004c8b3003b
:101ff40004c27200220320008000eb000440780039
:102004004fff0700070037009e42900004ccb30046
:1020140004c27200220320008000eb000440780018
:1020240047ff07000080fa00000006000200fa00e3
:102034005cff07000002eb00040f780030c6b30019
:102044004fff07000002eb00040f78000300370085
:10205400803e20006b0107001e0fe800743e200044
:102064009e027800848f5200f9ff3400beff0700ff
:10207400a0e12800a6ff070011c0b30020c0b300f0
:10208400d3ff07000002eb00040f780003003700c1
:10209400803e20005b0107001e0fe800743e200014
:1020a4009e027800848f5200f9ff3400a0e12800da
:1020b40097ff07000002eb00040f780003003700cd
:1020c400803e20004f0107001e0fe800743e2000f0
:1020d4009e027800848f5200f9ff34000080fa00d9
:1020e400000006000000fa008040eb000040eb0016
:1020f400b7ff070010e2280085ff07000080fa0000
:10210400000006000000fa008040eb000040eb00f5
:10211400afff070090e228007dff07000080fa006f
:10212400000006000200fa00000f78008040eb0077
:1021340010c0b300a6ff07001e00780074ff07005c
:102144000080fa00000006000000fa005c010700ad
:10215400640107006a01070012ff07001d01070060
:102164001400200004408800010037000000000033
:1021740046408000354080002440800006017800fd
:1021840085007800040078003b0107000002780015
:1021940004007800e3ff07000440800005002000ed
:1021a4004600200007002000860f5200878f5a0047
:1021b400eeff3e0004600100040037000700370012
:1021c4000a0037000f00370014003700c402a800cb
:1021d400c422a900c3ff070019003700c422a800c5
:1021e400c402a900c7ff070015003700e4408000bf
:1021f40004007800030107001440800004408800b4
:102204000f003700e440800004007800fd00070060
:102214001440800004408800090037000002eb00ed
:10222400244088000002eb00344088000002eb00e8
:10223400444088001400200004408800ccff37008c
:10224400cbff3700801f7800849fbe003400f80065
:1022540000002000a00188000000fa0084e0a9002a
:1022640004408000e00f520015003a004440800012
:102274000402e80044408800454080003406200001
:10228400848f52000e0034000002eb0044408800aa
:10229400344080000402e800344088003540800067
:1022a400b4032000848f5200050034000002eb00c8
:1022b40034408800244080000402e8002440880060
:1022c4000080fa003400f9004f02be004f0078008d
:1022d40000400600801f7800849fbe003400f80090
:1022e40000002000a00188000000fa008660a90018
:1022f400551680000402200004826200e00f5200a0
:102304000d003a0004408000e20f52000500320044
:1023140004408000e30f52000200320004408000b9
:102324001440880024002000044088001400200089
:1023340054408800390037005516800004022000fc
:1023440004826200e00f52000d003200544080000d
:10235400e10f52000a003a0004408000e10f5200ed
:1023640004003a0044002000144088003400200097
:10237400044088000002eb00544088002700370026
:102384005416800064026200e00f52000d003a000f
:1023940004408000e20f5200050032000440800037
:1023a400e30f520002003200044080001440880011
:1023b40024002000044088001400200064408800a9
:1023c400160037005416800064026200e00f5200c9
:1023d4001200320064408000e10f52000f003a0006
:1023e40004408000e00f520003003a001400200073
:1023f400144088000500370004408000e10f5200bb
:1024040002003a000002eb0014408800340020006f
:10241400044088000002eb00644088000080fa0059
:102424003400f9004f02be004f007800004006005f
:020000040000fa
:10243400140800000800000000000000000800006c
:1024440014000000000000001c080000020000004e
:1024540002000000881300001e080000ca000000eb
:102464000200000030313200333435003637380092
:1024740039414200434445004600300031323300c4
:1024840034353600373839006162630064656600ac
:1024940000286e00756c6c0029000000010000002b
:1024a4000000000000000a0000000000000000001e
:1024b400006400000000000000000000e8030000c9
:1024c40000000000000010002700000000000000d1
:1024d40000a08600010000000000000040420f0040
:1024e400000000000000800096980000000000003a
:1024f4000000e100f50500000000000000ca9a0099
:102504003b00000000000000e40b54000200000047
:102514000000e80076481700000000000010a50045
:10252400d4e8000000000000a0724e00180900006a
:10253400000040007a10f3005a0000000080c6003a
:10254400a47e8d000300000000c16f00f28623000a
:10255400000000008a5d780045630100000064000b
:10256400a7b3b600e00d000000e889000423c7000b
:102574008a000000e80800002600000002000000b5
:102584000f090000000f090009000000000200000c
:1025940011090000001109000e02010000000000f2
:1025a400000000000000000006020200000000001d
:1025b400e80800000e09000006000000000000000a
:1025c40014090000020000000200000001000000e5
:0425d4000000000003
:020000040000fa
:1025d8000000fa00f42320006408880084088000c2
:1025e8000440a0000450a0008408880084e0a900ea
:1025f80094e0a80011e1a8000080fa00000006009d
:102608000200fa00000f78000002eb0004088800be
:102618001e0278006e22b9000402780014088800af
:10262800240880000440a1000450a1002408880068
:102638008460a90005e1a8000400370005088000af
:1026480014088000848f52000500310024048000a3
:1026580068026200e00f5200f8ff32000100370004
:10266800000000008460a90005e1a9000080fa00cc
:10267800000006000600fa00000f78001107980015
:10268800220798002e029000841f78001e029000f6
:10269800841f78009e1f780024e32800841f780098
:1026a80040812000d3f70700e887570044812000c5
:1026b800040078000080fa00000006000000fa001c
:1026c800c602a800c622a800c002a900c022a9000c
:1026d800c402a800c422a8000080fa000000060076
:1026e8000000fa00c8a2a8008660a9009660a800a9
:1026f8006360a8000080fa00000006000000fa00ed
:102708002c83a80068c0a800c842a8008660a90059
:102718009660a80060c0a8000080fa0000000600cb
:020000040000fa
:020000040001f9
:0457f800ad7b000085
:020000040000fa
:020000040001f9
:0457fc003f3f00002b
:00000001FF
