:020000040000fa
:080000000002040000000000f2
:020000040000fa
:100008009a0200009a0200009a0200009a02000078
:100018009a0200009a0200009a0200009a02000068
:100028009a0200009a0200009a0200009a02000058
:100038009a0200009a0200009a0200004c0900008f
:100048009a0200009a0200009a0200009a02000038
:100058009a020000300900009a0200009a0200008b
:100068009a0200009a0200009a0200009a02000018
:100078009a0200009a0200009a0200009a02000008
:100088009a0200009a0200009a0200009a020000f8
:100098009a0200009a0200009a0200009a020000e8
:1000a8009a0200009a0200009a0200009a020000d8
:1000b8009a0200009a0200009a0200009a020000c8
:1000c8009a0200009a0200009a0200009a020000b8
:1000d8009a0200009a0200009a0200009a020000a8
:1000e8009a0200009a0200009a0200009a02000098
:1000f8009a0200009a0200009a0200009a02000088
:100108009a0200009a0200009a0200009a02000077
:100118009a0200009a0200009a0200009a02000067
:100128009a0200009a0200009a0200009a02000057
:100138009a0200009a0200009a0200009a02000047
:100148009a0200009a0200009a0200009a02000037
:100158009a0200009a0200009a0200009a02000027
:100168009a0200009a0200009a0200009a02000017
:100178009a0200009a0200009a0200009a02000007
:100188009a0200009a0200009a0200009a020000f7
:100198009a0200009a0200009a0200009a020000e7
:1001a8009a0200009a0200009a0200009a020000d7
:1001b8009a0200009a0200009a0200009a020000c7
:1001c8009a0200009a0200009a0200009a020000b7
:1001d8009a0200009a0200009a0200009a020000a7
:1001e8009a0200009a0200009a0200009a02000097
:0801f8009a0200009a020000c7
:020000040000fa
:100208009a0200009a0200009a0200009a02000076
:100218009a0200009a0200009a0200009a02000066
:100228009a0200009a0200009a0200009a02000056
:100238009a0200009a0200009a0200004c0900008d
:100248009a0200009a0200009a0200009a02000036
:100258009a020000300900009a0200009a02000089
:100268009a0200009a0200009a0200009a02000016
:100278009a0200009a0200009a0200009a02000006
:100288009a0200009a0200009a0200009a020000f6
:100298009a0200009a0200009a0200009a020000e6
:1002a8009a0200009a0200009a0200009a020000d6
:1002b8009a0200009a0200009a0200009a020000c6
:1002c8009a0200009a0200009a0200009a020000b6
:1002d8009a0200009a0200009a0200009a020000a6
:1002e8009a0200009a0200009a0200009a02000096
:1002f8009a0200009a0200009a0200009a02000086
:100308009a0200009a0200009a0200009a02000075
:100318009a0200009a0200009a0200009a02000065
:100328009a0200009a0200009a0200009a02000055
:100338009a0200009a0200009a0200009a02000045
:100348009a0200009a0200009a0200009a02000035
:100358009a0200009a0200009a0200009a02000025
:100368009a0200009a0200009a0200009a02000015
:100378009a0200009a0200009a0200009a02000005
:100388009a0200009a0200009a0200009a020000f5
:100398009a0200009a0200009a0200009a020000e5
:1003a8009a0200009a0200009a0200009a020000d5
:1003b8009a0200009a0200009a0200009a020000c5
:1003c8009a0200009a0200009a0200009a020000b5
:1003d8009a0200009a0200009a0200009a020000a5
:1003e8009a0200009a0200009a0200009a02000095
:0803f8009a0200009a020000c5
:020000040000fa
:100400000f8120000e7f22000e01880000000000f6
:10041000000020000000e000020032000001200087
:10042000200288000c000700a0a12000010020008d
:1004300011000700000020000000e0000200320070
:10044000000002000000000010090200000000008f
:100450000040da000000fe004440a90080002000b7
:100460000000e0000300320000002000a00188002e
:100470004440a80000000600910188008000780038
:100480000000eb0015003700e280400032a0b4000d
:100490009101ba00e280400032a0b4009102ba009b
:1004a000e280400032a0b4000002eb00472bde00e7
:1004b000f507b200602ce10004003a000059eb009f
:1004c0008301e900fdff3e00040037006128e100e0
:1004d000010032000082eb00040007001101ba00a5
:1004e0000200e000e8ff3a00000006003159ba00bf
:1004f0008301e9000c0032002159ba008301e900b0
:10050000080032000400e00003003a00e2804000ee
:1005100032a0b400f5ff370011d9ba008301e90019
:10052000faff3a008100e800e180400032a0b40008
:10053000000006000040da000000fe00889fbe00b8
:100540008a9fbe008c1f7800940007009b00330038
:1005500003866c006450e1002e0032006420e1004c
:10056000330032006150e1002f0032006120e100d1
:100570003100320085855500eb07b00009002000ee
:1005800008042000050037000804440089844c005a
:100590000a0031000603430087834b00000153002b
:1005a00081815b00f8ff33000203be000800a00059
:1005b0000804440089844c00f6ff3900c639dd0088
:1005c0008301730001003200130020008904d10070
:1005d0000884d3000998a300050032000800a70092
:1005e0000300a0008904d1000884d3008b05e80033
:1005f0008904d1000884d3000001eb000281d200fd
:100600002b00070001f0a1000cf0a70001f0a000f2
:10061000730037006420e100750032000801be005d
:100620000200be00f7ff37006120e10070003200d9
:100630006000b800f3ff37000000200001f8270039
:10064000f0ff37000001be003f0007000470a70064
:1006500003f0a10003f8a30013003a006509b100fc
:1006600010003200090035006928e1000200350061
:1006700001002800000005000000400081804800c3
:100680008502e900fcff3a0000000600f88f4200f6
:10069000050035008100d1000080d3008502e8000c
:1006a000fcff3a00000006008000eb00000005009f
:1006b00081002000618055000b003d000b002000f0
:1006c00061fe2f000100e1001d00340082817100f5
:1006d000610164008904d1000884d3000000e800af
:1006e000faff3a007100200061006400030070000e
:1006f000020060000900320061044400e0844c0004
:100700000988a500050032008b05e8006808e100b3
:1007100002003a008904d1000884d300f20f2000bf
:100720000258e10005003d00c75ddd00f907b20099
:100730008980750008007800000006000bf827008b
:100740008b00780000000500c70ade00f107b20048
:10075000f50fb20008003200e1cf42000200320083
:100760000170a00024000500810f7000010032001c
:100770000408050044000500810f700002003a00e3
:10078000140005008502e9000000400081c0480017
:10079000fcff3b000170a000240005000004be0027
:1007a000e9ff07000003be000405be000200be0012
:1007b000e5ff0700844f7500000006000200be0040
:1007c0006450e100050036006420e10002003600bc
:1007d0000968a30001003a000800be000160a00003
:1007e0004f0678004f05be004f04be000000060013
:1007f000f0ff2f00f1ff2700f9ff3700889fbe00b0
:100800008a9fbe008c1f7800e4ff0700ebff3300d7
:1008100003866c006450e100240032006420e10093
:10082000270032006150e100220032006120e10027
:10083000210032008b854200eb07b1000134b80083
:10084000003ab8000804420089844a00013ab8001e
:100850000030b8008880400009014a0004003300dd
:100860000000400081804800020149008b05e9003a
:10087000c909dd008301700001003200130020006f
:10088000c814de004814dd004709de001200b20083
:10089000c808de000884700085ff070001f0a10091
:1008a0000cf0a70001f0a000cdff37006120e100af
:1008b000cfff32000801be000200be00f7ff370084
:0c08c0006150e100fcff3a00c9ff370066
:020000040000fa
:1008cc00486500006c6c00006f2100000000000007
:020000040000fa
:1008dc000000fa00940880000440a1000450a1001c
:1008ec00940888000002eb00540888008403200060
:1008fc0074088800c962a9008461a800240c8000d7
:10090c000400a1000410a0000420a000240c880006
:10091c0055368000f40f2e008482620004202100e2
:10092c0005027200543688000002eb00140c88009b
:10093c00a4002000040c88000080fa0000000600cf
:10094c000000fa008a61a800540c80000400a10089
:10095c000410a0000420a000540c88001536800060
:10096c0004fe2f00048262003401b30014368800a8
:10097c00c842a900c862a900ce62a8000002eb0020
:10098c00440c88000002eb00340c88000080fa0054
:10099c00000006000000fa009061a800840c8000a2
:1009ac000400a1000410a0000420a000840c880006
:1009bc004536800004fe2f00048262004401b3001f
:1009cc0044368800c902a900c922a900cf22a80078
:1009dc000002eb00740c88000002eb00640c880031
:1009ec000080fa00000006000600fa00000f7800f4
:1009fc0012079800230798001e027800e10f52009e
:100a0c0011003a0002002000832c24001e009000ec
:100a1c00ae009000c6fe07000002be0002002000df
:100a2c00032624000400be0071ff07000002be0074
:100a3c000400be0000ff07000002be0004027800a4
:100a4c00340c8800130037001e027800e20f5200ad
:100a5c0010003a0002002000832c24001e0090009d
:100a6c00ae009000b2fe07000002be0002002000a3
:100a7c00032624000400be005dff07000002be0038
:100a8c000400be00ecfe07000002be000402780069
:100a9c00640c88000080fa00000006000400fa00d4
:100aac00000f7800110798001e029000e00f520012
:100abc001d003a001e027800e10f52000b003a00b4
:100acc0015368000f40f2e00048262001436880064
:100adc00ce62a800ce42a9001536800004fe2f007d
:100aec00048262003401b300143688001e027800c0
:100afc00e20f52002d003a0045368000f40f2e0014
:100b0c000482620044368800cf22a800cf02a900dc
:100b1c004536800004fe2f00048262004401b300bd
:100b2c0044368800210037001e029000e10f52006d
:100b3c001e003a001e027800e10f52000c003a0031
:100b4c001536800004fe2f000482620014368800e3
:100b5c00ce42a800ce62a90015368000f40f2e00fc
:100b6c008482620004302100050272001436880071
:100b7c001e027800e20f52000c003a00453680004d
:100b8c0004fe2f000482620044368800cf02a800c5
:100b9c00cf22a90045368000f40f2e00848262001b
:100bac0004402100050272004436880050002000e9
:100bbc00000207000080fa00000006000200fa00a4
:100bcc000002eb00040f78008000eb001000200006
:100bdc00b2ff07008000eb0020002000afff0700f1
:100bec000200200083242400100020007eff070058
:100bfc000200200083242400200020007aff07003c
:100c0c000002eb00040f780003003700007d200089
:100c1c00e80107001e0fe800743e20009e027800d9
:100c2c00848f5200f9ff3400020020006329240055
:100c3c00100020006cff0700020020006329240034
:100c4c002000200068ff07000002eb00040f780072
:100c5c0003003700007d2000d60107001e0fe800be
:100c6c00743e20009e027800848f5200f9ff3400fd
:100c7c0002002000832c2400100020005aff0700e3
:100c8c0002002000832c24002000200056ff0700c7
:100c9c000002eb00040f780003003700007d2000f9
:100cac00c40107001e0fe800743e20009e0278006d
:100cbc00848f5200f9ff3400110020001000200036
:100ccc0076ff0700110020002000200073ff0700b2
:100cdc0002002000832424001000200042ff0700a3
:100cec000200200083242400200020003eff070087
:100cfc000002eb00040f780003003700007d200099
:100d0c00ac0107001e0fe800743e20009e02780024
:100d1c00848f5200f9ff3400020020006329240064
:100d2c001000200030ff070002002000632924007f
:100d3c00200020002cff07000002eb00040f7800bd
:100d4c0003003700007d20009a0107001e0fe80009
:100d5c00743e20009e027800848f5200f9ff34000c
:100d6c0002002000832c2400100020001eff07002e
:100d7c0002002000832c2400200020001aff070012
:100d8c000002eb00040f780003003700007d200008
:100d9c00880107001e0fe800743e20009e027800b8
:100dac00848f5200f9ff34000080fa000000060026
:100dbc000800fa00004f78001107980022079800ed
:100dcc00330798003e029000e00f520009003200f9
:100ddc0065168000f4ff2000848262001e437800b8
:100dec000682fb004c22dd000502720064168800ae
:100dfc000a00370065168000f4ff20008482620030
:100e0c001e4278000483fb00040f200004026300e0
:100e1c004822dd0005027200641688001e02900054
:100e2c0004427800614262000482fb0061026200ad
:100e3c004722dd0066168000f5f72f00850263005f
:100e4c00050272006416880010002000590107008a
:100e5c00ccc2a8001000200056010700ccc2a9008b
:100e6c002e009000530107000080fa0000000600dd
:100e7c000600fa00004f780011079800220798002e
:100e8c008001eb002e0190009e0090001e40780027
:100e9c00c7ff0700130020002e0190009e00900059
:100eac001e407800c2ff07000080fa000000060018
:100ebc000200fa00004f78001e427800e202200087
:100ecc001100200004407800e9ff07000080fa00c0
:100edc00000006000000fa00c9e2a900c9c2a9007e
:100eec00c9a2a900c982a900c8e2a900c8c2a90068
:100efc0080a923002f0107001300200042002100cd
:100f0c008000eb0030c0b300a9ff070013002000e5
:100f1c00420620008000eb0030c0b300a4ff0700a5
:100f2c0013002000820220008000eb0030c0b300d0
:100f3c009fff070013002000820220008000eb00be
:100f4c0020c0b3009aff070013002000820220008b
:100f5c008000eb0020c0b30095ff070013002000b9
:100f6c00820220008000eb0080c0b30090ff0700dd
:100f7c0013002000820220008000eb000040eb00f8
:100f8c008bff070013002000820220008000eb0082
:100f9c0080c0b30086ff07001300200082022000ef
:100fac008000eb000040eb0081ff070013002000e5
:100fbc00826620008000eb0010c0b3007cff0700ad
:100fcc0013002000820220008000eb000040eb00a8
:100fdc0077ff070013002000820220008000eb0046
:100fec0060c0b30072ff07008001eb00820220009a
:100ffc008000eb0010c0b3006dff07001300200051
:10100c00826620008000eb0010c0b30068ff070070
:10101c008001eb00820220008000eb00c0c0b30016
:10102c0063ff070013002000820220008000eb0009
:10103c00c0c0b3005eff07000080fa00000006008d
:10104c000400fa00100798000002eb00040f78006f
:10105c000002eb00040f7800070037001e02780036
:10106c009e029000048242001442780004407800f2
:10107c008fff07001e0fe8001e0278009e029000f2
:10108c000482420014427800e04f5200f3ff3a0011
:10109c000080fa00000006000000fa008001eb005e
:1010ac00820220008000eb0010c0b30040ff07005c
:1010bc0013002000826620008000eb0010c0b300fb
:1010cc003bff07000080fa00000006000000fa0059
:1010dc008001eb00820220008000eb00e0c0b30036
:1010ec0033ff070013002000820220008000eb0079
:1010fc00e0c0b3002eff07000080fa0000000600dd
:10110c000200fa00004f7800114798001e42780048
:10111c00e04f520008003a009e42900004c8b30011
:10112c0004c27200220320008000eb00044078000f
:10113c004fff0700070037009e42900004ccb3001d
:10114c0004c27200220320008000eb0004407800ef
:10115c0047ff07000080fa00000006000200fa00ba
:10116c005cff07000002eb00040f780030c6b300f0
:10117c004fff07000002eb00040f7800030037005c
:10118c00803e20008b0007001e0fe800743e2000fc
:10119c009e027800848f5200f9ff3400beff0700d6
:1011ac0060462800a6ff070011c0b30020c0b300a2
:1011bc00d3ff07000002eb00040f78000300370098
:1011cc00803e20007b0007001e0fe800743e2000cc
:1011dc009e027800848f5200f9ff3400604628008c
:1011ec0097ff07000002eb00040f780003003700a4
:1011fc00803e20006f0007001e0fe800743e2000a8
:10120c009e027800848f5200f9ff34000080fa00af
:10121c00000006000a00fa002eff07002a00070053
:10122c00abfd0700c6fd0700dafd070013e1a800bf
:10123c00010037000000000060fe07002440800021
:10124c00e10f5200fbff34000002eb002440880049
:10125c00f9ff3700801f7800841f78003400f800f5
:10126c0000002000a00188000000fa0085a0a90061
:10127c0004188000044088000080fa003400f90053
:10128c004f0278004f00780000400600801f780065
:10129c00841f78003400f80000002000a0018800b2
:1012ac000000fa008460a900244080000402e800d9
:1012bc00244088000080fa003400f9004f027800c6
:1012cc004f007800004006000000fa00c002a800a1
:1012dc002c03a900041980000480a1000490a10033
:1012ec0004198800041980000450a0000460a000b8
:1012fc000470a000041988002043a8001419800071
:10130c0004d0a10004e0a10004f0a100141988008d
:10131c002343a900141980000420a1000430a1006b
:10132c000440a1000450a100141988002203a90054
:10133c0025e3a90025198000f40f2e008482620099
:10134c00041020000502720024198800a4c0b30008
:10135c000400780024e3b7000002eb004419880075
:10136c000002eb008419880021e3a80095a0a800d6
:10137c0085a0a9000080fa00000006000200fa0017
:10138c00f40f2e00040f78001e0278006408880009
:10139c00840880000440a0000450a0008408880049
:1013ac0094e0a80084e0a90011e1a8000080fa00f4
:1013bc00000006000200fa00000f78000002eb00ab
:1013cc00040888001e0278006e22b900040278001e
:1013dc0014088800240880000440a1000450a100d7
:1013ec00240888008460a90005e1a80004003700e7
:1013fc000508800014088000848f5200050031001d
:10140c002404800068026200e00f5200f8ff3200f2
:10141c0001003700000000008460a90005e1a9006c
:08142c000080fa000000060038
:020000040000fa
:101434000008000010000000000000000000000090
:020000040000fa
:020000040001f9
:0457f800ad7b000085
:020000040000fa
:020000040001f9
:0457fc003f3f00002b
:00000001FF
