:020000040000fa
:080000000002040000000000f2
:020000040000fa
:100008009a0200009a0200009a0200009a02000078
:100018009a0200009a0200009a0200009a02000068
:100028009a0200009a0200009a0200007e03000073
:100038009a0200009a0200009a0200009a02000048
:100048009a0200009a0200009a0200009a02000038
:100058009a0200009a0200009a0200009a02000028
:100068009a0200009a0200009a020000e0020000d2
:100078009a0200009a0200009a0200009a02000008
:100088009a0200009a0200009a0200009a020000f8
:100098009a0200009a0200009a0200009a020000e8
:1000a8009a0200009a0200009a0200009a020000d8
:1000b8009a0200009a0200009a0200009a020000c8
:1000c8009a0200009a0200009a0200009a020000b8
:1000d8009a0200009a0200009a0200009a020000a8
:1000e8009a0200009a0200009a0200009a02000098
:1000f8009a0200009a0200009a0200009a02000088
:100108009a0200009a0200009a0200009a02000077
:100118009a0200009a0200009a0200009a02000067
:100128009a0200009a0200009a0200009a02000057
:100138009a0200009a0200009a0200009a02000047
:100148009a0200009a0200009a0200009a02000037
:100158009a0200009a0200009a0200009a02000027
:100168009a0200009a0200009a0200009a02000017
:100178009a0200009a0200009a0200009a02000007
:100188009a0200009a0200009a0200009a020000f7
:100198009a0200009a0200009a0200009a020000e7
:1001a8009a0200009a0200009a0200009a020000d7
:1001b8009a0200009a0200009a0200009a020000c7
:1001c8009a0200009a0200009a0200009a020000b7
:1001d8009a0200009a0200009a0200009a020000a7
:1001e8009a0200009a0200009a0200009a02000097
:0801f8009a0200009a020000c7
:020000040000fa
:100208009a0200009a0200009a0200009a02000076
:100218009a0200009a0200009a0200009a02000066
:100228009a0200009a0200009a0200007e03000071
:100238009a0200009a0200009a0200009a02000046
:100248009a0200009a0200009a0200009a02000036
:100258009a0200009a0200009a0200009a02000026
:100268009a0200009a0200009a020000e0020000d0
:100278009a0200009a0200009a0200009a02000006
:100288009a0200009a0200009a0200009a020000f6
:100298009a0200009a0200009a0200009a020000e6
:1002a8009a0200009a0200009a0200009a020000d6
:1002b8009a0200009a0200009a0200009a020000c6
:1002c8009a0200009a0200009a0200009a020000b6
:1002d8009a0200009a0200009a0200009a020000a6
:1002e8009a0200009a0200009a0200009a02000096
:1002f8009a0200009a0200009a0200009a02000086
:100308009a0200009a0200009a0200009a02000075
:100318009a0200009a0200009a0200009a02000065
:100328009a0200009a0200009a0200009a02000055
:100338009a0200009a0200009a0200009a02000045
:100348009a0200009a0200009a0200009a02000035
:100358009a0200009a0200009a0200009a02000025
:100368009a0200009a0200009a0200009a02000015
:100378009a0200009a0200009a0200009a02000005
:100388009a0200009a0200009a0200009a020000f5
:100398009a0200009a0200009a0200009a020000e5
:1003a8009a0200009a0200009a0200009a020000d5
:1003b8009a0200009a0200009a0200009a020000c5
:1003c8009a0200009a0200009a0200009a020000b5
:1003d8009a0200009a0200009a0200009a020000a5
:1003e8009a0200009a0200009a0200009a02000095
:0803f8009a0200009a020000c5
:020000040000fa
:100400004f8020000e7f22000e01880000000000b7
:10041000000020000000e000020032000001200087
:10042000200288000c00070020432000010020006b
:1004300011000700000020000000e0000200320070
:1004400000000200000000009e0202000000000008
:100450000040da000000fe004440a9000000200037
:100460000000e0000300320000002000a00188002e
:100470004440a80000000600910188008000780038
:100480000000eb0015003700e280400032a0b4000d
:100490009101ba00e280400032a0b4009102ba009b
:1004a000e280400032a0b4000002eb00472bde00e7
:1004b000f507b200602ce10004003a000059eb009f
:1004c0008301e900fdff3e00040037006128e100e0
:1004d000010032000082eb00040007001101ba00a5
:1004e0000200e000e8ff3a00000006003159ba00bf
:1004f0008301e9000c0032002159ba008301e900b0
:10050000080032000400e00003003a00e2804000ee
:1005100032a0b400f5ff370011d9ba008301e90019
:10052000faff3a008100e800e180400032a0b40008
:0c053000000006000040da000000fe00a1
:020000040000fa
:10053c000000fa0085000700b9000700b1000700b1
:10054c000002eb00044088000100370000000000ae
:10055c000440800005002000360020000700200029
:10056c00860f5200878f5a00f8ff3e00046001008e
:10057c00030037000500370007003700090037007b
:10058c00400020007c0007000900370050002000cc
:10059c007900070006003700600020007600070095
:1005ac0003003700700020007300070000000000fb
:1005bc00e7ff3700801f7800849fbe003400f800ee
:1005cc0000002000a00188000000fa008660a9004d
:1005dc00551680000402200004826200e00f5200d5
:1005ec001d00320014408000e10f52001a0034004c
:1005fc0004408000e00f520003003a003400200059
:10060c00044088001100370004408000e10f5200c4
:10061c0003003a000002eb00044088000b00370096
:10062c0004408000e20f520003003a001400200046
:10063c00044088000500370004408000e30f52009e
:10064c0002003a0024002000044088000002eb0065
:10065c001440880021003700551680000402200049
:10066c0004826200e00f52001c0032001440800033
:10067c00e10f520019003c0004408000e00f5200d2
:10068c0003003a00140020000440880011003700d9
:10069c0004408000e10f520003003a0024002000c7
:1006ac00044088000b00370004408000e20f520029
:1006bc0003003a0034002000044088000500370095
:1006cc0004408000e30f520002003a000002eb00ed
:1006dc00044088000002eb00144088000080fa00ff
:1006ec003400f9004f02be004f00780000400600b5
:1006fc00801f7800849fbe003400f80000002000aa
:10070c00a00188000000fa008460a9005516800042
:10071c000402200004826200e00f520004003a0040
:10072c00144080000402e8001440880002003700e6
:10073c000002eb00144088000080fa003400f9003d
:10074c004f02be004f007800004006000000fa0087
:10075c00c982a900c9a2a900c9c2a900c9e2a900fd
:10076c00cde2a800cdc2a800cda2a800cd82a800e1
:10077c000080fa00000006000200fa00000f78006a
:10078c001e027800e40f520005003a00cde2a900e9
:10079c00cdc2a800cda2a800cd82a80017003700ba
:1007ac001e027800e50f520005003a00cde2a800c9
:1007bc00cdc2a900cda2a800cd82a8000f003700a1
:1007cc001e027800e60f520005003a00cde2a800a8
:1007dc00cdc2a800cda2a900cd82a8000700370089
:1007ec001e027800e70f520004003a00cde2a80088
:1007fc00cdc2a800cda2a800cd82a9000080fa002d
:10080c00000006000000fa00c8a2a8008660a9003b
:10081c009660a8006360a8000080fa000000060043
:10082c000200fa00f40f2e00040f78001e0278006c
:10083c0014088800240880000440a0000450a00084
:10084c00240888009460a8008460a90005e1a80031
:08085c000080fa000000060014
:020000040000fa
:100864000008000004000000000000000000000078
:020000040000fa
:020000040001f9
:0457f800ad7b000085
:020000040000fa
:020000040001f9
:0457fc003f3f00002b
:00000001FF
