:020000040000fa
:080000000002040000000000f2
:020000040000fa
:100008009a0200009a0200009a0200009a02000078
:100018009a0200009a0200009a0200009a02000068
:100028009a0200009a0200009a0200009a02000058
:100038009a0200009a0200009a0200009a02000048
:020000040000fa
:020000040000fa
:100400000f8020000e7f22000e01880000000000f7
:10041000000020000000e000020032000001200087
:10042000200288000c000700404f2000010020003f
:1004300011000700000020000000e0000200320070
:100440000000020000000000ee04020000000000b6
:100450000040da000000fe004440a90080002000b7
:100460000000e0000300320000002000a00188002e
:100470004440a80000000600910188008000780038
:100480000000eb0015003700e280400032a0b4000d
:100490009101ba00e280400032a0b4009102ba009b
:1004a000e280400032a0b4000002eb00472bde00e7
:1004b000f507b200602ce10004003a000059eb009f
:1004c0008301e900fdff3e00040037006128e100e0
:1004d000010032000082eb00040007001101ba00a5
:1004e0000200e000e8ff3a00000006003159ba00bf
:1004f0008301e9000c0032002159ba008301e900b0
:10050000080032000400e00003003a00e2804000ee
:1005100032a0b400f5ff370011d9ba008301e90019
:10052000faff3a008100e800e180400032a0b40008
:0c053000000006000040da000000fe00a1
:020000040000fa
:10053c00486500006c6c00006f210000000000009a
:020000040000fa
:10054c000800fa00004f7800110798002207980065
:10055c00330798003e029000e00f52000900320071
:10056c0065168000f4ff2000848262001e43780030
:10057c000682fb004c22dd00050272006416880026
:10058c000a00370065168000f4ff200084826200a8
:10059c001e4278000483fb00040f20000402630059
:1005ac004822dd0005027200641688001e029000cd
:1005bc0004427800614262000482fb006102620026
:1005cc004722dd0066168000f5f72f0085026300d8
:1005dc00050272006416880010002000e400070079
:1005ec00ccc2a80010002000e1000700ccc2a9007a
:1005fc002e009000de0007000080fa0000000600cc
:10060c000600fa00004f78001107980022079800a6
:10061c008001eb002e0190009e0090001e4078009f
:10062c00c7ff0700130020002e0190009e009000d1
:10063c001e407800c2ff07000080fa000000060090
:10064c000200fa00004f78001e427800e2022000ff
:10065c001100200004407800e9ff07000080fa0038
:10066c00000006000000fa00c9e2a900c9c2a900f6
:10067c00c9a2a900c982a900c8e2a900c8c2a900e0
:10068c0080a92300ba0007001300200042002100bb
:10069c008000eb0030c0b300a9ff0700130020005e
:1006ac00420620008000eb0030c0b300a4ff07001e
:1006bc0013002000820220008000eb0030c0b30049
:1006cc009fff070013002000820220008000eb0037
:1006dc0020c0b3009aff0700130020008202200004
:1006ec008000eb0020c0b30095ff07001300200032
:1006fc00820220008000eb0080c0b30090ff070056
:10070c0013002000820220008000eb000040eb0070
:10071c008bff070013002000820220008000eb00fa
:10072c0080c0b30086ff0700130020008202200067
:10073c008000eb000040eb0081ff0700130020005d
:10074c00826620008000eb0010c0b3007cff070025
:10075c0013002000820220008000eb000040eb0020
:10076c0077ff070013002000820220008000eb00be
:10077c0060c0b30072ff07008001eb008202200012
:10078c008000eb0010c0b3006dff070013002000c9
:10079c00826620008000eb0010c0b30068ff0700e9
:1007ac008001eb00820220008000eb00c0c0b3008f
:1007bc0063ff070013002000820220008000eb0082
:1007cc00c0c0b3005eff07000080fa000000060006
:1007dc000400fa00100798000002eb00040f7800e8
:1007ec000002eb00040f7800070037001e027800af
:1007fc009e0290000482420014427800044078006b
:10080c008fff07001e0fe8001e0278009e0290006a
:10081c000482420014427800e04f5200f3ff3a0089
:10082c000080fa00000006000000fa008001eb00d6
:10083c00820220008000eb0010c0b30040ff0700d4
:10084c0013002000826620008000eb0010c0b30073
:10085c003bff07000080fa00000006000200fa00cf
:10086c00004f7800114798001e427800e04f52006c
:10087c0008003a009e42900004c8b30004c2720003
:10088c00220320008000eb00044078005cff07008e
:10089c00070037009e42900004ccb30004c27200e3
:1008ac00220320008000eb000440780054ff070076
:1008bc000080fa00000006000200fa0069ff070041
:1008cc000002eb00040f780030c6b3005cff070099
:1008dc000002eb00040f780003003700803e20007c
:1008ec00230007001e0fe800743e20009e027800d3
:1008fc00848f5200f9ff3400cbff0700e029280059
:10090c00b3ff070011c0b30020c0b300d3ff070032
:10091c000002eb00040f780003003700803e20003b
:10092c00130007001e0fe800743e20009e027800a2
:10093c00848f5200f9ff3400e0292800a4ff07003f
:10094c000002eb00040f780003003700803e20000b
:10095c00070007001e0fe800743e20009e0278007e
:10096c00848f5200f9ff34000080fa00000006006a
:10097c000200fa00000f78000002eb003408880037
:10098c001e0278006e22b900040278006408880008
:10099c00840880000440a1000450a1008408880051
:1009ac0084e0a90011e1a8000000000025048000eb
:1009bc000408200004826200e00f5200fbff3200aa
:1009cc0084e0a90011e1a9000080fa0000000600f3
:0c09dc000000fa00b8ff0700feff370023
:020000040000fa
:0409e800000000000b
:020000040000fa
:020000040001f9
:0457f800ad7b000085
:020000040000fa
:020000040001f9
:0457fc003f3f00002b
:00000001FF
